{
  "_format": "hh-sol-artifact-1",
  "contractName": "VunaletPayments",
  "sourceName": "contracts/VunaletPayments.sol",
  "abi": [
    {
      "inputs": [
        {
          "internalType": "address",
          "name": "_feeRecipient",
          "type": "address"
        },
        {
          "internalType": "bytes32",
          "name": "_secretHash",
          "type": "bytes32"
        }
      ],
      "stateMutability": "nonpayable",
      "type": "constructor"
    },
    {
      "inputs": [],
      "name": "EnforcedPause",
      "type": "error"
    },
    {
      "inputs": [],
      "name": "ExpectedPause",
      "type": "error"
    },
    {
      "inputs": [
        {
          "internalType": "address",
          "name": "owner",
          "type": "address"
        }
      ],
      "name": "OwnableInvalidOwner",
      "type": "error"
    },
    {
      "inputs": [
        {
          "internalType": "address",
          "name": "account",
          "type": "address"
        }
      ],
      "name": "OwnableUnauthorizedAccount",
      "type": "error"
    },
    {
      "inputs": [],
      "name": "ReentrancyGuardReentrantCall",
      "type": "error"
    },
    {
      "anonymous": false,
      "inputs": [
        {
          "indexed": false,
          "internalType": "address",
          "name": "oldRecipient",
          "type": "address"
        },
        {
          "indexed": false,
          "internalType": "address",
          "name": "newRecipient",
          "type": "address"
        }
      ],
      "name": "FeeRecipientUpdated",
      "type": "event"
    },
    {
      "anonymous": false,
      "inputs": [
        {
          "indexed": true,
          "internalType": "address",
          "name": "previousOwner",
          "type": "address"
        },
        {
          "indexed": true,
          "internalType": "address",
          "name": "newOwner",
          "type": "address"
        }
      ],
      "name": "OwnershipTransferred",
      "type": "event"
    },
    {
      "anonymous": false,
      "inputs": [
        {
          "indexed": false,
          "internalType": "address",
          "name": "account",
          "type": "address"
        }
      ],
      "name": "Paused",
      "type": "event"
    },
    {
      "anonymous": false,
      "inputs": [
        {
          "indexed": true,
          "internalType": "string",
          "name": "orderId",
          "type": "string"
        },
        {
          "indexed": true,
          "internalType": "address",
          "name": "recipient",
          "type": "address"
        },
        {
          "indexed": false,
          "internalType": "uint256",
          "name": "amount",
          "type": "uint256"
        },
        {
          "indexed": false,
          "internalType": "string",
          "name": "recipientType",
          "type": "string"
        }
      ],
      "name": "PaymentDistributed",
      "type": "event"
    },
    {
      "anonymous": false,
      "inputs": [
        {
          "indexed": true,
          "internalType": "string",
          "name": "orderId",
          "type": "string"
        },
        {
          "indexed": true,
          "internalType": "address",
          "name": "buyer",
          "type": "address"
        },
        {
          "indexed": true,
          "internalType": "address",
          "name": "farmer",
          "type": "address"
        },
        {
          "indexed": false,
          "internalType": "uint256",
          "name": "totalAmount",
          "type": "uint256"
        }
      ],
      "name": "PaymentProcessed",
      "type": "event"
    },
    {
      "anonymous": false,
      "inputs": [
        {
          "indexed": false,
          "internalType": "uint256",
          "name": "oldFee",
          "type": "uint256"
        },
        {
          "indexed": false,
          "internalType": "uint256",
          "name": "newFee",
          "type": "uint256"
        }
      ],
      "name": "PlatformFeeUpdated",
      "type": "event"
    },
    {
      "anonymous": false,
      "inputs": [
        {
          "indexed": false,
          "internalType": "address",
          "name": "account",
          "type": "address"
        }
      ],
      "name": "Unpaused",
      "type": "event"
    },
    {
      "inputs": [],
      "name": "MAX_FEE_RATE",
      "outputs": [
        {
          "internalType": "uint256",
          "name": "",
          "type": "uint256"
        }
      ],
      "stateMutability": "view",
      "type": "function"
    },
    {
      "inputs": [
        {
          "internalType": "address",
          "name": "",
          "type": "address"
        }
      ],
      "name": "dispatcherTotalEarned",
      "outputs": [
        {
          "internalType": "uint256",
          "name": "",
          "type": "uint256"
        }
      ],
      "stateMutability": "view",
      "type": "function"
    },
    {
      "inputs": [],
      "name": "emergencyWithdraw",
      "outputs": [],
      "stateMutability": "nonpayable",
      "type": "function"
    },
    {
      "inputs": [
        {
          "internalType": "address",
          "name": "",
          "type": "address"
        }
      ],
      "name": "farmerTotalEarned",
      "outputs": [
        {
          "internalType": "uint256",
          "name": "",
          "type": "uint256"
        }
      ],
      "stateMutability": "view",
      "type": "function"
    },
    {
      "inputs": [],
      "name": "feeRecipient",
      "outputs": [
        {
          "internalType": "address",
          "name": "",
          "type": "address"
        }
      ],
      "stateMutability": "view",
      "type": "function"
    },
    {
      "inputs": [],
      "name": "getContractBalance",
      "outputs": [
        {
          "internalType": "uint256",
          "name": "",
          "type": "uint256"
        }
      ],
      "stateMutability": "view",
      "type": "function"
    },
    {
      "inputs": [
        {
          "internalType": "string",
          "name": "orderId",
          "type": "string"
        }
      ],
      "name": "getPayment",
      "outputs": [
        {
          "components": [
            {
              "internalType": "address",
              "name": "buyer",
              "type": "address"
            },
            {
              "internalType": "address",
              "name": "farmer",
              "type": "address"
            },
            {
              "internalType": "address",
              "name": "dispatcher",
              "type": "address"
            },
            {
              "internalType": "uint256",
              "name": "totalAmount",
              "type": "uint256"
            },
            {
              "internalType": "uint256",
              "name": "farmerAmount",
              "type": "uint256"
            },
            {
              "internalType": "uint256",
              "name": "dispatcherAmount",
              "type": "uint256"
            },
            {
              "internalType": "string",
              "name": "orderId",
              "type": "string"
            },
            {
              "internalType": "uint256",
              "name": "timestamp",
              "type": "uint256"
            },
            {
              "internalType": "bool",
              "name": "completed",
              "type": "bool"
            }
          ],
          "internalType": "struct VunaletPayments.Payment",
          "name": "",
          "type": "tuple"
        }
      ],
      "stateMutability": "view",
      "type": "function"
    },
    {
      "inputs": [
        {
          "internalType": "address",
          "name": "user",
          "type": "address"
        }
      ],
      "name": "getUserStats",
      "outputs": [
        {
          "internalType": "uint256",
          "name": "totalPaid",
          "type": "uint256"
        },
        {
          "internalType": "uint256",
          "name": "totalEarnedAsFarmer",
          "type": "uint256"
        },
        {
          "internalType": "uint256",
          "name": "totalEarnedAsDispatcher",
          "type": "uint256"
        }
      ],
      "stateMutability": "view",
      "type": "function"
    },
    {
      "inputs": [],
      "name": "owner",
      "outputs": [
        {
          "internalType": "address",
          "name": "",
          "type": "address"
        }
      ],
      "stateMutability": "view",
      "type": "function"
    },
    {
      "inputs": [],
      "name": "pause",
      "outputs": [],
      "stateMutability": "nonpayable",
      "type": "function"
    },
    {
      "inputs": [],
      "name": "paused",
      "outputs": [
        {
          "internalType": "bool",
          "name": "",
          "type": "bool"
        }
      ],
      "stateMutability": "view",
      "type": "function"
    },
    {
      "inputs": [
        {
          "internalType": "string",
          "name": "",
          "type": "string"
        }
      ],
      "name": "payments",
      "outputs": [
        {
          "internalType": "address",
          "name": "buyer",
          "type": "address"
        },
        {
          "internalType": "address",
          "name": "farmer",
          "type": "address"
        },
        {
          "internalType": "address",
          "name": "dispatcher",
          "type": "address"
        },
        {
          "internalType": "uint256",
          "name": "totalAmount",
          "type": "uint256"
        },
        {
          "internalType": "uint256",
          "name": "farmerAmount",
          "type": "uint256"
        },
        {
          "internalType": "uint256",
          "name": "dispatcherAmount",
          "type": "uint256"
        },
        {
          "internalType": "string",
          "name": "orderId",
          "type": "string"
        },
        {
          "internalType": "uint256",
          "name": "timestamp",
          "type": "uint256"
        },
        {
          "internalType": "bool",
          "name": "completed",
          "type": "bool"
        }
      ],
      "stateMutability": "view",
      "type": "function"
    },
    {
      "inputs": [],
      "name": "platformFeeRate",
      "outputs": [
        {
          "internalType": "uint256",
          "name": "",
          "type": "uint256"
        }
      ],
      "stateMutability": "view",
      "type": "function"
    },
    {
      "inputs": [
        {
          "internalType": "string",
          "name": "orderId",
          "type": "string"
        },
        {
          "internalType": "address",
          "name": "farmer",
          "type": "address"
        },
        {
          "internalType": "address",
          "name": "dispatcher",
          "type": "address"
        },
        {
          "internalType": "uint256",
          "name": "farmerAmount",
          "type": "uint256"
        },
        {
          "internalType": "uint256",
          "name": "dispatcherAmount",
          "type": "uint256"
        },
        {
          "internalType": "string",
          "name": "secret",
          "type": "string"
        }
      ],
      "name": "processOrderPayment",
      "outputs": [],
      "stateMutability": "payable",
      "type": "function"
    },
    {
      "inputs": [],
      "name": "renounceOwnership",
      "outputs": [],
      "stateMutability": "nonpayable",
      "type": "function"
    },
    {
      "inputs": [],
      "name": "secretHash",
      "outputs": [
        {
          "internalType": "bytes32",
          "name": "",
          "type": "bytes32"
        }
      ],
      "stateMutability": "view",
      "type": "function"
    },
    {
      "inputs": [
        {
          "internalType": "address",
          "name": "_feeRecipient",
          "type": "address"
        }
      ],
      "name": "setFeeRecipient",
      "outputs": [],
      "stateMutability": "nonpayable",
      "type": "function"
    },
    {
      "inputs": [
        {
          "internalType": "uint256",
          "name": "_feeRate",
          "type": "uint256"
        }
      ],
      "name": "setPlatformFeeRate",
      "outputs": [],
      "stateMutability": "nonpayable",
      "type": "function"
    },
    {
      "inputs": [
        {
          "internalType": "bytes32",
          "name": "_secretHash",
          "type": "bytes32"
        }
      ],
      "name": "setSecretHash",
      "outputs": [],
      "stateMutability": "nonpayable",
      "type": "function"
    },
    {
      "inputs": [
        {
          "internalType": "address",
          "name": "newOwner",
          "type": "address"
        }
      ],
      "name": "transferOwnership",
      "outputs": [],
      "stateMutability": "nonpayable",
      "type": "function"
    },
    {
      "inputs": [],
      "name": "unpause",
      "outputs": [],
      "stateMutability": "nonpayable",
      "type": "function"
    },
    {
      "inputs": [
        {
          "internalType": "address",
          "name": "",
          "type": "address"
        }
      ],
      "name": "userTotalPaid",
      "outputs": [
        {
          "internalType": "uint256",
          "name": "",
          "type": "uint256"
        }
      ],
      "stateMutability": "view",
      "type": "function"
    },
    {
      "inputs": [
        {
          "internalType": "uint256",
          "name": "amount",
          "type": "uint256"
        }
      ],
      "name": "withdraw",
      "outputs": [],
      "stateMutability": "nonpayable",
      "type": "function"
    },
    {
      "inputs": [
        {
          "internalType": "address payable",
          "name": "to",
          "type": "address"
        },
        {
          "internalType": "uint256",
          "name": "amount",
          "type": "uint256"
        }
      ],
      "name": "withdrawTo",
      "outputs": [],
      "stateMutability": "nonpayable",
      "type": "function"
    },
    {
      "stateMutability": "payable",
      "type": "receive"
    }
  ],
  "bytecode": "0x608060405260fa6007553480156200001657600080fd5b5060405162001b1738038062001b17833981016040819052620000399162000192565b33806200006157604051631e4fbdf760e01b8152600060048201526024015b60405180910390fd5b6200006c8162000142565b50600180556001600160a01b038216620000c95760405162461bcd60e51b815260206004820152601560248201527f496e76616c69642066656520726563697069656e740000000000000000000000604482015260640162000058565b80620001185760405162461bcd60e51b815260206004820152601360248201527f496e76616c696420736563726574206861736800000000000000000000000000604482015260640162000058565b600880546001600160a01b0319166001600160a01b039390931692909217909155600955620001ce565b600080546001600160a01b038381166001600160a01b0319831681178455604051919092169283917f8be0079c531659141344cd1fd0a4f28419497f9722a3daafe3b4186f6b6457e09190a35050565b60008060408385031215620001a657600080fd5b82516001600160a01b0381168114620001be57600080fd5b6020939093015192949293505050565b61193980620001de6000396000f3fe60806040526004361061014f5760003560e01c80638456cb59116100b6578063d29e68031161006f578063d29e680314610400578063db2e21bc14610416578063e74b981b1461042b578063eeca08f01461044b578063f2fde38b14610461578063f94687131461048157600080fd5b80638456cb59146103575780638da5cb5b1461036c5780638dec9c1a1461038a578063927fef2e1461039d57806392f6576e146103bd578063c69207a3146103d357600080fd5b80635c975abb116101085780635c975abb146102925780636ab07a3b146102b55780636f9fb98a146102e2578063715018a6146102f5578063733b0fb41461030a578063794f75ba1461032a57600080fd5b8063205c28781461015b5780632e1a7d4d1461017d5780633f4ba83a1461019d57806346904840146101b25780634e43603a146101ef578063599c2ef51461025757600080fd5b3661015657005b600080fd5b34801561016757600080fd5b5061017b6101763660046113e1565b6104b6565b005b34801561018957600080fd5b5061017b61019836600461140d565b6105f4565b3480156101a957600080fd5b5061017b6106d9565b3480156101be57600080fd5b506008546101d2906001600160a01b031681565b6040516001600160a01b0390911681526020015b60405180910390f35b3480156101fb57600080fd5b5061023c61020a366004611426565b6001600160a01b0316600090815260046020908152604080832054600583528184205460069093529220549192909190565b604080519384526020840192909252908201526060016101e6565b34801561026357600080fd5b50610284610272366004611426565b60056020526000908152604090205481565b6040519081526020016101e6565b34801561029e57600080fd5b5060025460ff1660405190151581526020016101e6565b3480156102c157600080fd5b506102846102d0366004611426565b60066020526000908152604090205481565b3480156102ee57600080fd5b5047610284565b34801561030157600080fd5b5061017b6106eb565b34801561031657600080fd5b5061017b61032536600461140d565b6106fd565b34801561033657600080fd5b50610284610345366004611426565b60046020526000908152604090205481565b34801561036357600080fd5b5061017b61074d565b34801561037857600080fd5b506000546001600160a01b03166101d2565b61017b6103983660046114ed565b61075d565b3480156103a957600080fd5b5061017b6103b836600461140d565b610e1a565b3480156103c957600080fd5b506102846103e881565b3480156103df57600080fd5b506103f36103ee36600461158c565b610eba565b6040516101e69190611619565b34801561040c57600080fd5b5061028460095481565b34801561042257600080fd5b5061017b611029565b34801561043757600080fd5b5061017b610446366004611426565b61106e565b34801561045757600080fd5b5061028460075481565b34801561046d57600080fd5b5061017b61047c366004611426565b61111e565b34801561048d57600080fd5b506104a161049c36600461158c565b611159565b6040516101e6999897969594939291906116c1565b6104be61124f565b6001600160a01b0382166105195760405162461bcd60e51b815260206004820152601960248201527f496e76616c696420726563697069656e7420616464726573730000000000000060448201526064015b60405180910390fd5b600081116105695760405162461bcd60e51b815260206004820152601d60248201527f416d6f756e74206d7573742062652067726561746572207468616e20300000006044820152606401610510565b804710156105b95760405162461bcd60e51b815260206004820152601d60248201527f496e73756666696369656e7420636f6e74726163742062616c616e63650000006044820152606401610510565b6040516001600160a01b0383169082156108fc029083906000818181858888f193505050501580156105ef573d6000803e3d6000fd5b505050565b6105fc61124f565b6000811161064c5760405162461bcd60e51b815260206004820152601d60248201527f416d6f756e74206d7573742062652067726561746572207468616e20300000006044820152606401610510565b8047101561069c5760405162461bcd60e51b815260206004820152601d60248201527f496e73756666696369656e7420636f6e74726163742062616c616e63650000006044820152606401610510565b600080546040516001600160a01b039091169183156108fc02918491818181858888f193505050501580156106d5573d6000803e3d6000fd5b5050565b6106e161124f565b6106e961127c565b565b6106f361124f565b6106e960006112ce565b61070561124f565b806107485760405162461bcd60e51b8152602060048201526013602482015272092dcecc2d8d2c840e6cac6e4cae840d0c2e6d606b1b6044820152606401610510565b600955565b61075561124f565b6106e961131e565b61076561135b565b61076d611385565b60095481604051602001610781919061172a565b60405160208183030381529060405280519060200120146107d55760405162461bcd60e51b815260206004820152600e60248201526d125b9d985b1a59081cd958dc995d60921b6044820152606401610510565b600034116108335760405162461bcd60e51b815260206004820152602560248201527f5061796d656e7420616d6f756e74206d75737420626520677265617465722074604482015264068616e20360dc1b6064820152608401610510565b6001600160a01b0385166108825760405162461bcd60e51b8152602060048201526016602482015275496e76616c6964206661726d6572206164647265737360501b6044820152606401610510565b60008651116108c75760405162461bcd60e51b815260206004820152601160248201527013dc99195c881251081c995c5d5a5c9959607a1b6044820152606401610510565b6003866040516108d7919061172a565b9081526040519081900360200190206008015460ff161561093a5760405162461bcd60e51b815260206004820152601960248201527f5061796d656e7420616c72656164792070726f636573736564000000000000006044820152606401610510565b346000610947848661175c565b905060006127106007548461095c9190611775565b610966919061178c565b9050600061097482856117ae565b9050828110156109c65760405162461bcd60e51b815260206004820152601b60248201527f496e73756666696369656e74207061796d656e7420616d6f756e7400000000006044820152606401610510565b604051806101200160405280336001600160a01b031681526020018a6001600160a01b03168152602001896001600160a01b031681526020018581526020018881526020018781526020018b81526020014281526020016001151581525060038b604051610a34919061172a565b9081526040805160209281900383019020835181546001600160a01b03199081166001600160a01b0392831617835593850151600183018054861691831691909117905591840151600282018054909416921691909117909155606082015160038201556080820151600482015560a0820151600582015560c08201516006820190610ac09082611843565b5060e08201516007820155610100909101516008909101805460ff19169115159190911790553360009081526004602052604081208054869290610b0590849061175c565b90915550506001600160a01b03891660009081526005602052604081208054899290610b3290849061175c565b90915550508615610bec576040516001600160a01b038a169088156108fc029089906000818181858888f19350505050158015610b73573d6000803e3d6000fd5b50886001600160a01b03168a604051610b8c919061172a565b60405180910390207ff7c4b3b7ec22703a62214c6fc9c7bbf0e400f7dd6a7d9989c8839a78463a052989604051610be3918152604060208201819052600690820152653330b936b2b960d11b606082015260800190565b60405180910390a35b6001600160a01b03881615801590610c045750600086115b15610ce9576001600160a01b03881660009081526006602052604081208054889290610c3190849061175c565b90915550506040516001600160a01b0389169087156108fc029088906000818181858888f19350505050158015610c6c573d6000803e3d6000fd5b50876001600160a01b03168a604051610c85919061172a565b60405180910390207ff7c4b3b7ec22703a62214c6fc9c7bbf0e400f7dd6a7d9989c8839a78463a052988604051610ce0918152604060208201819052600a90820152693234b9b830ba31b432b960b11b606082015260800190565b60405180910390a35b8115610da9576008546040516001600160a01b039091169083156108fc029084906000818181858888f19350505050158015610d29573d6000803e3d6000fd5b506008546040516001600160a01b0390911690610d47908c9061172a565b60405180910390207ff7c4b3b7ec22703a62214c6fc9c7bbf0e400f7dd6a7d9989c8839a78463a052984604051610da091815260406020820181905260089082015267706c6174666f726d60c01b606082015260800190565b60405180910390a35b886001600160a01b0316336001600160a01b03168b604051610dcb919061172a565b604051908190038120878252907fc52d3c0fdb9f8c58b123b7372908015b3cf63ae1f159a92b134fc659329572959060200160405180910390a450505050610e1260018055565b505050505050565b610e2261124f565b6103e8811115610e745760405162461bcd60e51b815260206004820152601e60248201527f46656520726174652063616e6e6f7420657863656564206d6178696d756d00006044820152606401610510565b600780549082905560408051828152602081018490527fd347e206f25a89b917fc9482f1a2d294d749baa4dc9bde7fb495ee11fe49164391015b60405180910390a15050565b604080516101208101825260008082526020820181905281830181905260608083018290526080830182905260a0830182905260c083015260e082018190526101008201529051600390610f0f90849061172a565b9081526040805191829003602090810183206101208401835280546001600160a01b03908116855260018201548116928501929092526002810154909116918301919091526003810154606083015260048101546080830152600581015460a083015260068101805460c084019190610f87906117c1565b80601f0160208091040260200160405190810160405280929190818152602001828054610fb3906117c1565b80156110005780601f10610fd557610100808354040283529160200191611000565b820191906000526020600020905b815481529060010190602001808311610fe357829003601f168201915b50505091835250506007820154602082015260089091015460ff16151560409091015292915050565b61103161124f565b600080546040516001600160a01b03909116914780156108fc02929091818181858888f1935050505015801561106b573d6000803e3d6000fd5b50565b61107661124f565b6001600160a01b0381166110c45760405162461bcd60e51b8152602060048201526015602482015274125b9d985b1a5908199959481c9958da5c1a595b9d605a1b6044820152606401610510565b600880546001600160a01b038381166001600160a01b031983168117909355604080519190921680825260208201939093527faaebcf1bfa00580e41d966056b48521fa9f202645c86d4ddf28113e617c1b1d39101610eae565b61112661124f565b6001600160a01b03811661115057604051631e4fbdf760e01b815260006004820152602401610510565b61106b816112ce565b8051808201602090810180516003808352938301929094019190912092905281546001830154600284015492840154600485015460058601546006870180546001600160a01b03968716989587169790961695939492939192916111bc906117c1565b80601f01602080910402602001604051908101604052809291908181526020018280546111e8906117c1565b80156112355780601f1061120a57610100808354040283529160200191611235565b820191906000526020600020905b81548152906001019060200180831161121857829003601f168201915b50505050600783015460089093015491929160ff16905089565b6000546001600160a01b031633146106e95760405163118cdaa760e01b8152336004820152602401610510565b6112846113a9565b6002805460ff191690557f5db9ee0a495bf2e6ff9c91a7834c1ba4fdd244a5e8aa4e537bd38aeae4b073aa335b6040516001600160a01b03909116815260200160405180910390a1565b600080546001600160a01b038381166001600160a01b0319831681178455604051919092169283917f8be0079c531659141344cd1fd0a4f28419497f9722a3daafe3b4186f6b6457e09190a35050565b611326611385565b6002805460ff191660011790557f62e78cea01bee320cd4e420270b5ea74000d11b0c9f74754ebdbfc544b05a2586112b13390565b60026001540361137e57604051633ee5aeb560e01b815260040160405180910390fd5b6002600155565b60025460ff16156106e95760405163d93c066560e01b815260040160405180910390fd5b60025460ff166106e957604051638dfc202b60e01b815260040160405180910390fd5b6001600160a01b038116811461106b57600080fd5b600080604083850312156113f457600080fd5b82356113ff816113cc565b946020939093013593505050565b60006020828403121561141f57600080fd5b5035919050565b60006020828403121561143857600080fd5b8135611443816113cc565b9392505050565b634e487b7160e01b600052604160045260246000fd5b600082601f83011261147157600080fd5b813567ffffffffffffffff8082111561148c5761148c61144a565b604051601f8301601f19908116603f011681019082821181831017156114b4576114b461144a565b816040528381528660208588010111156114cd57600080fd5b836020870160208301376000602085830101528094505050505092915050565b60008060008060008060c0878903121561150657600080fd5b863567ffffffffffffffff8082111561151e57600080fd5b61152a8a838b01611460565b97506020890135915061153c826113cc565b90955060408801359061154e826113cc565b909450606088013593506080880135925060a0880135908082111561157257600080fd5b5061157f89828a01611460565b9150509295509295509295565b60006020828403121561159e57600080fd5b813567ffffffffffffffff8111156115b557600080fd5b6115c184828501611460565b949350505050565b60005b838110156115e45781810151838201526020016115cc565b50506000910152565b600081518084526116058160208601602086016115c9565b601f01601f19169290920160200192915050565b602081526116336020820183516001600160a01b03169052565b6000602083015161164f60408401826001600160a01b03169052565b5060408301516001600160a01b03811660608401525060608301516080830152608083015160a083015260a083015160c083015260c08301516101208060e085015261169f6101408501836115ed565b60e0860151610100868101919091529095015115159301929092525090919050565b6001600160a01b038a81168252898116602083015288166040820152606081018790526080810186905260a0810185905261012060c0820181905260009061170b838201876115ed565b60e0840195909552505090151561010090910152979650505050505050565b6000825161173c8184602087016115c9565b9190910192915050565b634e487b7160e01b600052601160045260246000fd5b8082018082111561176f5761176f611746565b92915050565b808202811582820484141761176f5761176f611746565b6000826117a957634e487b7160e01b600052601260045260246000fd5b500490565b8181038181111561176f5761176f611746565b600181811c908216806117d557607f821691505b6020821081036117f557634e487b7160e01b600052602260045260246000fd5b50919050565b601f8211156105ef576000816000526020600020601f850160051c810160208610156118245750805b601f850160051c820191505b81811015610e1257828155600101611830565b815167ffffffffffffffff81111561185d5761185d61144a565b6118718161186b84546117c1565b846117fb565b602080601f8311600181146118a6576000841561188e5750858301515b600019600386901b1c1916600185901b178555610e12565b600085815260208120601f198616915b828110156118d5578886015182559484019460019091019084016118b6565b50858210156118f35787850151600019600388901b60f8161c191681555b5050505050600190811b0190555056fea2646970667358221220b41f78fc9f17184b021418162c0cbc44d7533574fd7660e22187c56f7e1f768964736f6c63430008180033",
  "linkReferences": {},
  "deployedLinkReferences": {}
}